:020000040800F2
:10000000A00500209D0100087718000817170008B8
:10001000751800083D040008ED21000800000000EC
:10002000000000000000000000000000FD1B0008B0
:100030003F04000800000000D5180008FF1B00085E
:10004000B7010008B7010008B7010008B7010008B0
:10005000B7010008B7010008B7010008B7010008A0
:10006000B7010008B7010008B7010008B701000890
:10007000B7010008B7010008B7010008B701000880
:10008000B7010008B7010008B7010008B701000870
:10009000B7010008B7010008B7010008B701000860
:1000A000B7010008B7010008B7010008B701000850
:1000B000B7010008B7010008B7010008B701000840
:1000C000B7010008B7010008B7010008B701000830
:1000D000B7010008C1210008CD210008B7010008C0
:1000E000B7010008B7010008B7010008B701000810
:1000F000B7010008B7010008B7010008B701000800
:10010000B7010008B7010008B7010008B7010008EF
:10011000B7010008B7010008B7010008B7010008DF
:10012000B7010008B7010008B7010008B7010008CF
:10013000B7010008B7010008B7010008B7010008BF
:10014000B7010008B7010008B7010008B7010008AF
:10015000B7010008B7010008B7010008B70100089F
:10016000B7010008B7010008B7010008B70100088F
:10017000B7010008B7010008B7010008000000003F
:10018000B7010008B7010008DFF80CD000F08AF8CA
:100190000048004745230008A00500200648804786
:1001A00006480047FEE7FEE7FEE7FEE7FEE7FEE75C
:1001B000FEE7FEE7FEE7FEE7751C00088901000880
:1001C0002DE9F05F0546002092469B46884606468C
:1001D000814640241BE0284641464746224600F01F
:1001E00050F853465A46C01A914110D3114618464A
:1001F000224600F037F82D1A67EB01084F462246D9
:100200000120002100F02EF817EB00094E41201EBE
:10021000A4F10104DFDC484631462A46434600F09B
:1002200000B830BCBDE8C09FD2B201E000F8012B9D
:10023000491EFBD270470022F6E710B513460A4666
:1002400004461946FFF7F0FF204610BD421E12F883
:10025000013F002BFBD111F8013B02F8013B002BC1
:10026000F9D17047202A04DB203A00FA02F100207D
:1002700070479140C2F1200320FA03F319439040E4
:100280007047202A04DB203A21FA02F0002170474F
:1002900021FA02F3D040C2F12002914008431946EE
:1002A00070470000064C074D06E0E06840F001038F
:1002B00094E8070098471034AC42F6D3FFF768FF84
:1002C000A8240008C824000810B58AB004462821D4
:1002D0006846FFF7B0FF08A16846FFF7B7FF214661
:1002E0006846FFF7B3FF09A16846FFF7AFFF68460E
:1002F00002F06AF80AB010BD41542B434744434F03
:100300004E543D312C224950222C2200220D0A004D
:1003100010B522A002F058F822A002F055F823A050
:1003200002F052F824A002F04FF826A002F04CF898
:1003300026A002F049F828A002F046F829A002F011
:1003400043F82BA002F040F82CA002F03DF82EA0BC
:1003500002F03AF83048FFF7B7FF30A002F034F867
:1003600032A002F031F82C49891F01F11C0001F084
:1003700083FA294A3D32A2F10901A1F1090001F0F5
:10038000CBF9254A4A32A2F15201881E01F0A4FAA3
:100390002148BDE81040593002F004B841540D0A1C
:1003A00000000000415456300D0A000041542B4318
:1003B0004D45453D320D0A0041542B4350494E3FB7
:1003C0000D0A0000415445310D0A000041542B43F1
:1003D000494D490D0A00000041542B4353510D0A69
:1003E0000000000041542B435245473F0D0A0000D6
:1003F00041542B43475245473F0D0A0041542B437C
:100400004F50533F0D0A000041542B434741545471
:100410003D310D0A000000000D00002041542B4327
:10042000474143543D312C310D0A000041542B43C8
:100430004744434F4E543F0D0A000000FEE770470B
:1004400010B590F825100024022903D00421C163BF
:1004500001241AE001680A6822F00E020A600168AD
:100460000A6822F001020A6090F84410036C01F05F
:100470001C02012101FA02F25A6080F825100021C5
:1004800080F82410816B01B18847204610BD000020
:1004900070B5044600F0F8F80546601C02D0044828
:1004A0004068044400F0F0F8401BA042FAD370BD4D
:1004B000740000202DE9F84FDFF898B100234FF0C9
:1004C000010C4FF0030A4FF00F090BF1040EB9E0D5
:1004D0000CFA03F4224070D04D68022D01D0122D89
:1004E0000ED1DD0800EB8508D8F820505E07F70E26
:1004F00009FA07F6B5430E69BE402E43C8F82060DE
:1005000007685E0091F804800AFA06F508F003080F
:10051000AF4308FA06F848EA0708C0F800804F68B9
:10052000012F05D0022F03D0112F01D0122F13D18C
:10053000D0F80880CF6828EA0508B74047EA0807DE
:100540008760D0F804800F7928EA0408C7F3001701
:100550009F4047EA08074760D1F804806FEA080720
:10056000BF0706D1C76AA743C8F3C0049C403C43F9
:10057000C462C468AC438D68B5402543C5604C680F
:10058000E4005ED5344C256E45F001052566246EE9
:1005900023F0030504F001040094304C2E19B468D4
:1005A0009D072F0F09FA07F5AC43B0F1904F05D026
:1005B0002B4DA84204D101251CE042E0002519E0A2
:1005C000284DA84201D1022514E0274DA84201D1AF
:1005D00003250FE0254DA84201D104250AE0244D52
:1005E000A84201D1052505E0224DA84201D10625EA
:1005F00000E00725BD402543B560DBF800405D46BF
:100600004E689443F60300D514432C60DEF8004096
:1006100075464E689443B60300D514432C600D4DC7
:1006200008352C684E689443F60200D514432C60BC
:10063000084D0C352C684E689443B60200D514431F
:100640002C605B1C0A6832FA03F57FF441AF00F0BE
:1006500013B80000000401400010024000000140F7
:100660000004004800080048000C00480010004842
:10067000001400480018004818BCBDE8E08F0AB11B
:10068000816170478162704701488068704700004F
:1006900074000020024881684268114481607047FC
:1006A00074000020094810B50168002441F48071ED
:1006B0000160032000F072F8002000F009F808B192
:1006C000012401E000F026F8204610BD0020024081
:1006D00070B50E4E05460024706898B14FF47A71DB
:1006E000B1FBF0F00A490968B1FBF0F000F0F2FD4F
:1006F00040B9102D06D200222946501E00F02EF8D7
:10070000356000E00124204670BD00007400002028
:1007100080000020094808B5016E41F00101016622
:10072000016E01F001010091816D41F08051816500
:10073000806D00F08050009008BD00000010024065
:10074000002809DB00F01F020121914040098000D0
:1007500000F1E020C0F8001170470000F0B40E4B2B
:100760001B680C46C3F30223C3F10705042D00D90F
:100770000425191D072901D2002300E0DB1E0126F4
:1007800006FA05F1491E214099409E40761E16400A
:100790003143F0BC01F03CBD0CED00E0064900F037
:1007A000070208684FF6FF03184040EA0220034A98
:1007B00010430860704700000CED00E00000FA05EF
:1007C0001649B0F5007F0868C0F3412009D002281F
:1007D00005D0086820F4C06040F480600860002004
:1007E00070470128FBD0086820F4C06040F4007016
:1007F00008600B483222006850430A4AB0FBF2F00E
:10080000401C00E0401E4A69520501D50028F9D17C
:1008100048694005E3D503207047000000700040A0
:100820008000002040420F000248006800F4C060D1
:1008300070470000007000402DE9F84F0446002783
:100840000088E54D3E46010504F1200B1DD5606E84
:1008500078B1B0F5800F11D0B0F5000F04D0B0F52D
:10086000400F22D001270FE0E86840F48030E860B4
:100870001BE00021201D01F069F803E0002158462B
:1008800001F0FAF8070010D03E462088C00426D5B3
:10089000A06EC0B1B0F1807F1AD0B0F1007F0DD052
:1008A000B0F1407F19D0012718E0D5F88800616EBB
:1008B00020F440000843C5F88800E6E7E86840F403
:1008C0008030E86009E00021201D01F03FF803E0DE
:1008D0000021584601F0D0F80746F7B13E4620689F
:1008E00080033AD5A86D4FF00008C00009D4A86D68
:1008F00040F08050A865A86D4FF0010800F08050CE
:100900000090DFF8D8A2DAF8001041F48071CAF83C
:100910000010FFF7B9FE814610E0D5F88800A16EFF
:1009200020F040700843C5F88800D8E7FFF7ACFE18
:10093000A0EB0900022801D9032705E0DAF800003E
:10094000C005F3D5002F7CD04FEA0706B8F1000FA1
:1009500003D0A86D20F08050A8652078C00707D08C
:10096000D5F88800A16B20F003000843C5F8880083
:100970002078800707D5D5F88800E16B20F00C00BF
:100980000843C5F888002078400707D5D5F88800C7
:10099000216C20F030000843C5F88800207800075B
:1009A00007D5D5F88800616C20F0C0000843C5F871
:1009B00088002078C00607D5D5F88800A16C20F4FF
:1009C00040700843C5F888002078800607D5D5F820
:1009D0008800E16C20F440600843C5F88800208856
:1009E000800507D5D5F88800E16D20F44020084344
:1009F000C5F888002088400507D5D5F88800216E05
:100A000020F440100843C5F888002078400607D538
:100A1000D5F88800216D20F440500843C5F88800BF
:100A20002078000607D5D5F88800616D20F4404095
:100A30000843C5F888002088C00509D5D5F8880086
:100A400000E01CE0A16D20F440300843C5F88800A8
:100A500020884FF0006780044FF080684FD5D5F8AC
:100A60008800E16E20F040600843C5F88800E06E21
:100A7000B8423CD1E86840F48010E8603FE0D5F827
:100A8000900010F4407015D0D4F88410814211D039
:100A9000D5F89000D5F8901020F4407041F48031E2
:100AA000C5F89010D5F8901021F48031C5F8901059
:100AB000C5F89000C00710D0FFF7E6FD074641F2E9
:100AC000883906E0FFF7E0FDC11B494501D903263F
:100AD0003CE7D5F890008007F4D5D5F89000D4F81D
:100AE000841020F440700843C5F890002EE740457C
:100AF00005D10121201D00F029FF00B10646206824
:100B0000000317D5D5F88800216F20F04060084316
:100B1000C5F88800206FB84204D1E86840F480101E
:100B2000E86007E0404505D10121201D00F00EFFDF
:100B300000B106462068400317D5D5F88800616FDC
:100B400020F040600843C5F88800606FB84204D1C7
:100B5000E86840F48010E86007E0404505D10121D5
:100B6000201D00F0F3FE00B10646208840041AD58F
:100B7000D5F88800A16F20F040500843C5F88800E0
:100B8000A06FB0F1805F03D0B0F1005F05D00AE044
:100B90000221201D00F0DAFE03E00221584600F099
:100BA0006BFF00B106462088000407D5D5F8880001
:100BB000E16F20F080400843C5F888002068C0033A
:100BC00007D555F8880FD4F8801020F0004008436E
:100BD0002860304600F004B8001002400070004069
:100BE00018BCBDE8E08F00002DE9F0470F46050076
:100BF00058D0404E306800F00700B84209D2306843
:100C000020F0070038433060306800F00700B84239
:100C100048D12878384CC0072CD06868032811D0F8
:100C2000022812D0216898B1490500293ADAA16852
:100C300021F003010143A160FFF726FD804641F248
:100C4000883910E021688901EFE721688903ECE722
:100C50008907EAE7FFF718FDA0EB0801494502D92B
:100C60000320BDE8F087A068696800F00C00B0EBD5
:100C7000810FEFD12878800705D5A068A96820F0FA
:100C8000F0000843A060306800F00700B8420BD9BC
:100C9000306820F0070038433060306800F007000B
:100CA000B84201D00120DCE72878400705D5A068CC
:100CB000E96820F4E0600843A0602878000706D5C2
:100CC000A068296920F4605040EAC100A06000F0EB
:100CD0003FF8A168094AC1F30311515C01F01F01FB
:100CE000C8400749086007480068BDE8F047FFF7BB
:100CF000EFBC000000200240001002406024000809
:100D000080000020740000200548064900688968BA
:100D1000054AC1F30221515C01F01F01C840704730
:100D20008000002000100240A02400080548064969
:100D300000688968054AC1F3C221515C01F01F01B6
:100D4000C84070478000002000100240A024000826
:100D500070B52549002318468A68CC6812F00C0249
:100D600004F00306214C4FEA640509D00C2A05D093
:100D7000042A32D0082A00D1284670BD012E10D195
:100D80000B681B0704D4D1F89430C3F3032302E0AB
:100D90000B68C3F30313164E56F82330DAB10C2A4E
:100DA000EBD1C86800F00300022818D0032818D03F
:100DB0001846CA68CB68C2F30212C3F30623434342
:100DC000521CB3FBF2F2C868C0F34160401C400003
:100DD000B2FBF0F070BD184670BD204670BD2046D5
:100DE000E7E72846E5E70000001002400024F40091
:100DF000702400082DE9F84304006ED0FD4DA8686A
:100E000000F00C06E86800F003072078C00663D500
:100E100076B10C2E01D1012F0AD0A06900282868D4
:100E200078D040F001002860FFF72EFC80465BE0A0
:100E30002868800702D5A0690028DED0216A2868CA
:100E4000000703D5286800F0F00004E0D5F894000E
:100E5000F02202EA1010814216D9084600F090FEF6
:100E600000283AD1286840F0080028602868216AE4
:100E700020F0F000084328606868E16920F47F40B2
:100E800040EA0120686015E0286840F0080028600A
:100E90002868216A20F0F000084328606868E1694A
:100EA00020F47F4040EA01206860206A00F068FE7C
:100EB0000028D6D1FFF74CFFA968CF4AC1F3031130
:100EC000515C01F01F01C840CC490860CC48006863
:100ED000FFF7FEFB00287DD12DE0C9E0FFF7D4FB32
:100EE000A0EB0800022876D828688007F6D5286885
:100EF00040F0080028602868216A20F0F0000843CC
:100F000028606868E16920F47F4040EA0120686059
:100F100011E0FFE720F001002860FFF7B5FB8046F5
:100F200006E000BFFFF7B0FBA0EB08000228DAD80C
:100F300028688007F6D42078C00740D0082E18D043
:100F40000C2E01D1032F14D06068B0F5803F17D06C
:100F5000B0F5A02F286817D020F4803028602868CA
:100F600020F4802028606068E0B1FFF78DFB8046A8
:100F700014E02868800322D56068002878D01EE03D
:100F8000286840F48030EDE740F480202860F7E7DF
:100F9000FFF77AFBA0EB08006428A4D82868800338
:100FA000F6D50CE0FFF770FB804605E0FFF76CFB21
:100FB000A0EB0800642896D828688003F6D420782F
:100FC00080073BD5042E11D00C2E01D1022F0DD05D
:100FD000E06801E03EE19FE0002828681ED040F470
:100FE00080702860FFF750FB07460CE0286840053A
:100FF0000CD5E0680028C1D008E000BFFFF744FB33
:10100000C01B022893D828684005F7D56868217C62
:1010100020F0F85040EA016068600FE020F4807032
:101020002860FFF731FB074605E000BFFFF72CFB08
:10103000C01B022870D828684005F7D42078000724
:1010400029D560690028D5F8940012D040F001003D
:10105000C5F89400FFF718FB074604E0FFF714FB00
:10106000C01B022858D8D5F894008007F6D512E0A6
:1010700029E120F00100C5F89400FFF705FB0746C1
:1010800005E000BFFFF700FBC01B022844D8D5F8DD
:1010900094008007F6D42078400768D5A86D002713
:1010A000C00008D4A86D40F08050A865A86D012745
:1010B00000F08050009053480168C90512D40168BF
:1010C000814641F480710160FFF7DEFA804605E059
:1010D000FFF7DAFAA0EB080002281DD8D9F80000C3
:1010E000C005F5D5A068012817D00528D5F89000CF
:1010F00018D020F00100C5F89000D5F8900020F03D
:10110000040000BFC5F89000A06841F28839D0B152
:10111000FFF7BAFA804611E06BE0D5F8900040F096
:101120000100EFE740F00400C5F89000F5E700BFCC
:10113000FFF7AAFAA0EB080149455AD8D5F8900064
:101140008007F5D50EE0FFF79FFA804606E000BF66
:10115000FFF79AFAA0EB080149457AD8D5F8900034
:101160008007F5D41FB1A86D20F08050A865A06A53
:10117000F0B30C2E75D00228286820F0807028600B
:1011800004D0286810F0205F51D054E0FFF77CFABB
:10119000064604E0FFF778FA801B022859D8286831
:1011A0008001F7D4D4E90B016FF00F0202EB0111BB
:1011B0000843A18F5204490802EB4151626B41EA96
:1011C0000221084394F840104FF07E42490802EB98
:1011D00041610843A16B090940EA4140E9680A4AB4
:1011E00011400843E860286840F0807028600DE0F6
:1011F0006BE02EE000100240602400088000002018
:1012000074000020007000408C809DF9E86840F078
:101210008070E860FFF738FA044604E0FFF734FA1C
:10122000001B022815D828688001F7D54DE0E86832
:1012300020F00300E860E86825490840E860FFF70F
:1012400023FA044609E000BFFFF71EFA001B02283C
:1012500003D90320BDE8F88303E028688001F3D4B4
:1012600033E00128F6D0E868E26A00F00301914219
:1012700029D1216B00F0700209011039914222D16D
:10128000626B00F4FE41B1EB022F1CD1A26B00F4A3
:101290000031072A01D0012200E00022914212D140
:1012A000A18F00F4C00249084905A1F5001191423F
:1012B00009D194F8401000F0C06049084906A1F136
:1012C0000071814201D00120C4E70020C2E7000084
:1012D000FFFFEEFE10B5401EB0F1807F01D301206C
:1012E00010BD4FF0E02460610F21601700F090FF07
:1012F0000020A06107202061002010BD70477047CA
:101300002DE9F04102680446D0691168936810F035
:101310000F0F4FF000055BD003F0010601F490774A
:10132000374369D0C70707D0CF0505D50127176216
:10133000E26F42F00102E267820708D5DA0706D0C1
:10134000276802223A62E26F42F00402E267420733
:1013500008D5DA0706D0236804221A62E26F42F049
:101360000202E26702070AD501F02002324306D0EA
:10137000236808221A62E26F42F00802E267E26F15
:10138000002A32D0800605D5880603D5216E09B122
:1013900020468847E06F21688968490601D4000724
:1013A00025D5204600F022FD20688168490619D520
:1013B000816821F040018160E06E98B1204981632D
:1013C000E06EFFF73DF800280FD0E06E816B06E07D
:1013D000860611D58E060FD5216E1EE02046BDE88B
:1013E000F04108472046FFF78AFFBDE8F08120461C
:1013F000FFF785FFE567F8E7C60209D55B0207D569
:101400004FF4801010622046BDE8F041FFF776BF30
:10141000030605D50B0603D5616E0029DED1E4E78E
:101420004006E2D54806E0D51168204621F040018B
:10143000116020216167656600F06CF9D5E7000056
:10144000D91D000810B5040002D0606F10B107E08C
:10145000012010BD002084F87000204600F026F81E
:10146000242060672068016821F0010101602046A6
:1014700000F026FD0128ECD0606A10B1204600F093
:101480001BFC2068416821F490414160206881681C
:1014900021F02A0181602068016841F001010160AA
:1014A0002046BDE8104000F06BBC0000F0B587B0EE
:1014B000044614216846FEF7BEFE284F2668002227
:1014C00027490223032407254FF09040BE421FD135
:1014D0000E6E46F480460E660E6E06F48046059645
:1014E000CE6C46F00106CE64C96C02AE01F001017B
:1014F00005916102CDE9001386E834006946FEF7E4
:10150000D9FF002211462520FFF728F9252021E0E8
:10151000144FBE4220D18E6D46F400368E658E6D1E
:1015200006F400360596CE6C46F00106CE64C96C12
:1015300002AE01F0010105910C21CDE9001386E80E
:1015400034006946FEF7B6FF002211462620FFF759
:1015500005F92620FFF7F4F807B0F0BD0038014088
:10156000001002400044004030B5836F202B4BD167
:10157000B1B1AAB190F87030012B45D0012380F8A9
:1015800070304165A0F85820A0F85A20002101666B
:101590001D038268FF23AA4207D1026912B125E028
:1015A000012030BD40F2FF1226E07F24E2B1B2F10B
:1015B000805F1ED0A0F85C10C1672222826702689B
:1015C000936843F0010393608268AA4201D10269E3
:1015D000C2B10E4A026680F870100068016841F4DA
:1015E00090710160002030BD026942B9A0F85C3002
:1015F000E2E702691AB13F22A0F85C20DCE7A0F81C
:101600005C40D9E7024AE5E7022030BD651E0008CC
:101610000B1E000830B400680C4988420FD10E4BF5
:101620000B490C4A18780C781454401CC0B218703E
:10163000104410F8010C0D2801D10020087030BCB6
:10164000012203490548FFF78FBF00000044004016
:101650000000002088010020010000200801002077
:101660002DE9F8430446406F1F4616460D462028D4
:101670004ED1CDB1C6B194F87000012848D00120F8
:1016800084F870004FF00008C4F87C802120606767
:10169000FEF7FAFFA4F850608146A4F85260A068F3
:1016A000B0F5805F03D004E00120BDE8F883206935
:1016B00010B12E46002510E000260EE080212046C5
:1016C00000F04EFDB8B9C6B116F8010B21680885C7
:1016D000B4F85200401EA4F85200B4F852004B4631
:1016E0004FF0000200970028E8D14FF0400120465B
:1016F00000F036FD30B10320D7E735F8020BC0F318
:101700000800E3E72020606784F870800020CCE7C1
:101710000220CAE77047FEE770B58AB00D4604465E
:10172000164628216846FEF786FD10A16846FEF79A
:101730008DFD21466846FEF789FD10A16846FEF73B
:1017400085FD29466846FEF781FD0CA16846FEF737
:101750007DFD31466846FEF779FD09A16846FEF732
:1017600075FD684600F030FE0AB070BD41542B5143
:101770004D54434F4E4E3D302C220000222C22006F
:10178000220D0A0030B587B014216846FEF753FDDC
:101790001F48C16C41F00401C164C16C01F0040137
:1017A0000591C16C41F08001C164C16C01F0800100
:1017B0000591C16C41F00101C164C16C01F00101EE
:1017C0000591C16C41F00201C164C06C4FF09045BD
:1017D00000F0020005900022E0212846FEF74FFFAE
:1017E0004FF4005000900B480024CDE901046946F5
:1017F0000948FEF75FFEE02000900120CDE90104DA
:10180000694628460394FEF755FE07B030BD000038
:101810000010024000002110000800480948084953
:1018200001604FF416514160002181600C22C160BB
:10183000C0E904128161C16101624162FFF702BE29
:1018400000380140880000200948084901604FF431
:1018500016514160002181600C22C160C0E9041270
:101860008161C16101624162FFF7ECBD004400404B
:1018700008010020FEE7704730B58BB00D460446E6
:1018800028216846FEF7D7FC0CA16846FEF7DEFC6F
:1018900021466846FEF7DAFC0CA16846FEF7D6FC46
:1018A00029466846FEF7D2FC09A16846FEF7CEFC41
:1018B000684600F089FD0BB030BD000041542B514B
:1018C0004D544F50454E3D302C220000222C00003C
:1018D0000D0A00007047000070B58AB00D4604463E
:1018E000164628216846FEF7A6FC10A16846FEF7BA
:1018F000ADFC21466846FEF7A9FC10A16846FEF73C
:10190000A5FC29466846FEF7A1FC0DA16846FEF736
:101910009DFC31466846FEF799FC0BA16846FEF730
:1019200095FC684600F050FD0AB070BD41542B5143
:101930004D545055423D302C000000002C0000005A
:101940002C302C2200000000220D0A002DE9F0416D
:10195000444C05468846E0680026810728680DD07B
:10196000E16801F00301814216D1A8B1E06869681D
:10197000C0F30210401C88420ED120E0012804D0A0
:10198000022805D0032807D108E02168890701E073
:1019900021684905002907DB01265FE021688903EA
:1019A00002D421684903F5E7E1686A686FF00F0324
:1019B00021F0730103EB021211430143E16020683F
:1019C00020F080602060FEF75FFE074605E000BF64
:1019D000FEF75AFEC01B022837D820680001F7D452
:1019E000B8F1000F18D0B8F1010F1ED0287D4FF0CC
:1019F0007E41400801EB4060A96840EA012021696E
:101A0000194A114008432061206840F0806020603E
:101A1000FEF73AFE07461AE0A868E96800020909DD
:101A200040EA41402169114AEBE7288A1049400801
:101A300001EB4050A96840EA012021690D4AE0E726
:101A4000FEF722FEC01B022801D9032606E020680B
:101A50000001F5D52069A969084320613046BDE839
:101A6000F081000000100240FF80FFF9FF80FDFFC1
:101A70000000E0FFFF809FFF2DE9F0413D4C06464E
:101A80008846E0680025810730680DD0E16801F0E4
:101A90000301814216D1A8B1E0687168C0F3021059
:101AA000401C88420ED120E0012804D0022805D035
:101AB000032807D108E02168890701E0216849056A
:101AC000002907DB012551E02168890302D4216840
:101AD0004903F5E7E16872686FF00F0321F07301C5
:101AE00003EB021211430143E160206820F08050B3
:101AF0002060FEF7C9FD074605E000BFFEF7C4FD04
:101B0000C01B022829D820688000F7D4B8F1000F44
:101B100015D0307C4FF07E41400801EB4060B16849
:101B200040EA01206169144A11400843606120685D
:101B300040F080502060FEF7A7FD07460FE0B06838
:101B4000F1680002090940EA414061690B4AEBE78C
:101B5000FEF79AFDC01B022801D9032506E0206884
:101B60008000F5D560697169084360612846BDE869
:101B7000F081000000100240FF80FFF9FF80FDFFB0
:101B8000F8B51C4D06460024A86DC00002D5FEF72E
:101B90004BFE0DE0A86D40F08050A865A86D00F0E8
:101BA00080500090FEF740FEA96D21F08051A9659C
:101BB000B0F5007F04D0802E07D94FF003040AE06F
:101BC000802E08D9A02E01D804E001D1022402E021
:101BD000702E00D101240848016821F0070121433B
:101BE0000160006800F00700A04201D00120F8BDAC
:101BF0000020F8BD00100240002002407047FEF7B0
:101C000049BD30B5B9B0442122A8FEF714FB142118
:101C100033A8FEF710FB88216846FEF70CFB022074
:101C2000C10125911021229026912C900121CDE90E
:101C30002D010A212F910721CDE93010329022A8E1
:101C4000FFF7D8F8002403250F20CDE93454339052
:101C50003694042133A83794FEF7C6FF00950E94FE
:101C600068460F94FEF7E8FD4FF40070FEF7A8FDFC
:101C700039B030BD0D48016841F4700101600C4875
:101C8000016841F001010160002181600268094B97
:101C90001A4002608214C260026822F4802202604C
:101CA00081610249C00380390860704788ED00E017
:101CB00000100240FFFFF6EA90F82410C90706D092
:101CC00001684A68836A22F400321A434A6090F835
:101CD0002410890706D501684A68C36A22F4803255
:101CE0001A434A6090F82410490706D501684A68EB
:101CF000036B22F480221A434A6090F824100907EB
:101D000006D501684A68436B22F400421A434A60D0
:101D100090F82410C90606D501688A68836B22F4FE
:101D200080521A438A6090F82410890606D501680B
:101D30008A68C36B22F400521A438A6090F8241018
:101D4000490611D501684A68036C22F480121A43CF
:101D50004A60016CB1F5801F06D101684A68436C86
:101D600022F4C0021A434A6090F82410090606D5EE
:101D700001684A68806C22F4002202434A6070477E
:101D8000F8B500260446C667FEF77EFC05462068C7
:101D900000686FF07E47000708D52B4600224FF4FD
:101DA00000112046009700F0DBF960B92068006858
:101DB00040070AD52B4600224FF4800120460097A9
:101DC00000F0CEF908B10320F8BD20206067A067BD
:101DD00084F870600020F8BD10B5806A0021A0F87A
:101DE0005A10A0F85210FFF78AFA10BD01680A686D
:101DF00022F490720A6001688A6822F001028A6007
:101E00002021816700210166704710B5B0F85C2081
:101E1000836F0168222B04D0088B40F008000883F0
:101E200010BD898C436D11401980416D891C41653D
:101E3000B0F85A10491EA0F85A10B0F85A100029EC
:101E4000EED101680A6822F490720A6001688A681B
:101E500022F001028A602021816700210166FFF7DC
:101E6000D9FB10BD10B5B0F85C20836F0168222B40
:101E700004D0088B40F00800088310BD898C114005
:101E8000426D1170416D491C4165B0F85A10491EF0
:101E9000A0F85A10B0F85A100029EED101680A686B
:101EA00022F490720A6001688A6822F001028A6056
:101EB0002021816700210166FFF7ACFB10BD000007
:101EC0002DE9F0410546016880682B69EC691843EB
:101ED0006B69002723431843954A0B68954C2340B0
:101EE00003430B6028684168EB6821F440511943B3
:101EF00041602968A869914201D02B6A18438B6818
:101F000023F4306303438B608B4B29688B489942E1
:101F10000DD1D0F8880010F0030006D0012868D059
:101F2000022864D0032851D165E001244FE0844B9E
:101F300099420BD1D0F8880010F00C0055D004283D
:101F400057D0082853D00C2840D154E07D4B9942FB
:101F50000BD1D0F8880010F0300046D0102848D0BF
:101F6000202844D0302831D145E0774B99420BD11D
:101F7000D0F8880010F0C00037D0402839D0802831
:101F800035D0C02822D136E0704B99420ED1D0F81E
:101F9000880010F4407028D0B0F5807F29D0B0F5CB
:101FA000007F24D0B0F5407F10D124E091420DD1C4
:101FB000D0F8880010F4406017D0B0F5806F18D0CA
:101FC000B0F5006F13D0B0F5406F14D01024604B03
:101FD00000264FF40040914245D174B1022C0FD03D
:101FE000042C0FD0082C18D10FE00024EFE70224B6
:101FF000EDE70424EBE70824E9E7FEF785FE03E0BC
:10200000184602E0FEF7A4FEA8B36A6802EB42019C
:10201000814202D8B0EB023F01D9012775E0DFF819
:1020200034815CB1022C0CD0042C13D0082CF4D1D8
:1020300050082105401846F1000105E0FEF764FE56
:102040000AE050084449F5E70023FEF7B9F8A0F587
:10205000407156E0FEF77CFE6A68010E03025008EC
:1020600018187141F0E7E9694FF6EF7881422FD1F6
:10207000092CD2D200E048E0DFE804F00609200590
:10208000230505052600C8E7FEF73EFE01E0FEF742
:102090004DFE4100D5F8040001EB5001B1FBF0F01A
:1020A00080B2A0F110014145B7D84FF6F071014060
:1020B000C0F3420001432868C16026E027496868F0
:1020C000EAE7FEF745FEE4E74FF480316868E3E7AE
:1020D000092CA2D2DFE804F006091E052205050539
:1020E00025009AE7FEF710FE01E0FEF71FFE01460D
:1020F000686801EB500100BFB1FBF0F080B2A0F1C5
:102100001001414589D82968C8602E6638466E6638
:10211000BDE8F081686803EB5001EDE7FEF718FEBB
:10212000E5E7696800EB5100B0FBF1F0E6E700007D
:1021300000800040F369FFEF0038014000100240CA
:102140000044004000480040004C00400050004067
:102150000024F400FFFC0F00000024F40048E80114
:102160002DE9F041984617460E460446069D08E0C4
:10217000681C06D0FEF788FAA0EB0800A8420BD82E
:1021800055B12068C06936EA000017D00020B84277
:10219000EED00020BDE8F0812068016821F4D07104
:1021A00001602068816821F0010181602020606762
:1021B000A067002084F870000320EBE70120E6E729
:1021C0000148FFF79DB800008800002010B50548C1
:1021D000FFF796F8BDE81040012203490148FFF7D8
:1021E000C3B900000801002000000020FEE7000045
:1021F0000FB4054B10B503A9044A029800F027F864
:1022000010BC5DF814FB00002D23000884000020A2
:102210000907090E002804DB00F1E02080F8001413
:10222000704700F00F0000F1E02080F8141D7047A7
:1022300002E008C8121F08C1002AFAD1704770478F
:10224000002001E001C1121F002AFBD170472DE9D7
:10225000F84F9946924688460546002706E025280D
:102260000AD051464A4690476D1C7F1C28780028AA
:10227000F5D1384600F056B8002315F8011F18466E
:102280002E2915D115F8011F04232A290DD06FF02E
:102290002F022978A1F13004092C09D800EB800025
:1022A00002EB400008446D1CF3E758F8040B6D1C6A
:1022B0002A78002ADDD0632A07D0732A0FD010466F
:1022C00051464A4690477F1C2AE018F8042B8DF8A7
:1022D000002000218DF801106E46012103E058F81E
:1022E000046B4FF0FF315A074FF0000401D409E0AE
:1022F000641C84420BDA8C42FADB325D002AF7D18F
:1023000005E0641C8C42FCDB305D0028F9D12744D9
:1023100004E016F8010B51464A469047641EF8D275
:102320006D1CA3E718BCBDE8E08F000013B54FF6A5
:10233000FF73012269460248FFF792F900981CBD1D
:1023400088000020FEF7AEF9FFF75BFCFFF71AFAF2
:10235000FFF764FAFFF778FA012206490648FFF70B
:1023600003F94FF4FA60FEF793F800F007F8FDF771
:10237000CFFFFEE7000000200801002010B54FF05D
:102380009044012220212046FEF779F94FF4FA60AB
:10239000FEF77EF820460022BDE810402021FEF71F
:1023A0006EB9000010B5044605A1FDF74FFF2146A8
:1023B0006423BDE8104032220248FFF751B9000003
:1023C0001A000000080100202DE9F0411F4C0025F3
:1023D0000646657008E03118642301221C48FFF7A7
:1023E0003FF96078401C60706078315C0D29F2D153
:1023F0006423022217A11648FFF732F94FF4FA6757
:102400003846FEF745F813A0FFF7F2FE6570124E4E
:1024100006E0315C11A0FFF7EBFE6078401C6070B5
:10242000607821788842F4D325700AA0FFF7E0FE97
:10243000657060783554401CC0B260701428F8D3C1
:102440003846BDE8F041FEF723B800000100002047
:10245000080100200D0A000088010020256300000B
:102460000000000000000000010203040607080944
:10247000A0860100400D0300801A060000350C0004
:1024800040420F0080841E0000093D0000127A00C7
:102490000024F40000366E010048E801006CDC0204
:1024A0000000000001020304C8240008000000200E
:1024B0008800000030220008502500088800002015
:1024C00018050000402200080000003000300031F4
:1024D0003139373000494E5445524E45542E564FEF
:1024E0004441464F4E452E4E4554007461696C6F11
:1024F000722E636C6F75646D7174742E636F6D00F2
:10250000756B726E6E6D706B00756B726E6E6D704A
:102510006B0050542D6A3537776D6F533061004E24
:10252000616B6865656C5F4D6F64756C65004865CF
:102530006C6C6F2D2D2D2D3E23000000100000002F
:10254000010000000000000000093D000000000044
:040000050800018965
:00000001FF
